{
    "_format": "hh-sol-artifact-1",
    "contractName": "Domains",
    "sourceName": "contracts/Domains.sol",
    "abi": [
        {
            "inputs": [
                {
                    "internalType": "string",
                    "name": "_tld",
                    "type": "string"
                }
            ],
            "stateMutability": "payable",
            "type": "constructor"
        },
        {
            "inputs": [],
            "name": "AlreadyRegistered",
            "type": "error"
        },
        {
            "inputs": [
                {
                    "internalType": "string",
                    "name": "name",
                    "type": "string"
                }
            ],
            "name": "InvalidName",
            "type": "error"
        },
        {
            "inputs": [],
            "name": "Unauthorized",
            "type": "error"
        },
        {
            "anonymous": false,
            "inputs": [
                {
                    "indexed": true,
                    "internalType": "address",
                    "name": "owner",
                    "type": "address"
                },
                {
                    "indexed": true,
                    "internalType": "address",
                    "name": "approved",
                    "type": "address"
                },
                {
                    "indexed": true,
                    "internalType": "uint256",
                    "name": "tokenId",
                    "type": "uint256"
                }
            ],
            "name": "Approval",
            "type": "event"
        },
        {
            "anonymous": false,
            "inputs": [
                {
                    "indexed": true,
                    "internalType": "address",
                    "name": "owner",
                    "type": "address"
                },
                {
                    "indexed": true,
                    "internalType": "address",
                    "name": "operator",
                    "type": "address"
                },
                {
                    "indexed": false,
                    "internalType": "bool",
                    "name": "approved",
                    "type": "bool"
                }
            ],
            "name": "ApprovalForAll",
            "type": "event"
        },
        {
            "anonymous": false,
            "inputs": [
                {
                    "indexed": true,
                    "internalType": "address",
                    "name": "from",
                    "type": "address"
                },
                {
                    "indexed": true,
                    "internalType": "address",
                    "name": "to",
                    "type": "address"
                },
                {
                    "indexed": true,
                    "internalType": "uint256",
                    "name": "tokenId",
                    "type": "uint256"
                }
            ],
            "name": "Transfer",
            "type": "event"
        },
        {
            "inputs": [
                {
                    "internalType": "address",
                    "name": "to",
                    "type": "address"
                },
                {
                    "internalType": "uint256",
                    "name": "tokenId",
                    "type": "uint256"
                }
            ],
            "name": "approve",
            "outputs": [],
            "stateMutability": "nonpayable",
            "type": "function"
        },
        {
            "inputs": [
                {
                    "internalType": "address",
                    "name": "owner",
                    "type": "address"
                }
            ],
            "name": "balanceOf",
            "outputs": [
                {
                    "internalType": "uint256",
                    "name": "",
                    "type": "uint256"
                }
            ],
            "stateMutability": "view",
            "type": "function"
        },
        {
            "inputs": [
                {
                    "internalType": "string",
                    "name": "",
                    "type": "string"
                }
            ],
            "name": "domains",
            "outputs": [
                {
                    "internalType": "address",
                    "name": "",
                    "type": "address"
                }
            ],
            "stateMutability": "view",
            "type": "function"
        },
        {
            "inputs": [
                {
                    "internalType": "string",
                    "name": "name",
                    "type": "string"
                }
            ],
            "name": "getAddress",
            "outputs": [
                {
                    "internalType": "address",
                    "name": "",
                    "type": "address"
                }
            ],
            "stateMutability": "view",
            "type": "function"
        },
        {
            "inputs": [],
            "name": "getAllNames",
            "outputs": [
                {
                    "internalType": "string[]",
                    "name": "",
                    "type": "string[]"
                }
            ],
            "stateMutability": "view",
            "type": "function"
        },
        {
            "inputs": [
                {
                    "internalType": "uint256",
                    "name": "tokenId",
                    "type": "uint256"
                }
            ],
            "name": "getApproved",
            "outputs": [
                {
                    "internalType": "address",
                    "name": "",
                    "type": "address"
                }
            ],
            "stateMutability": "view",
            "type": "function"
        },
        {
            "inputs": [
                {
                    "internalType": "string",
                    "name": "name",
                    "type": "string"
                }
            ],
            "name": "getRecord",
            "outputs": [
                {
                    "internalType": "string",
                    "name": "",
                    "type": "string"
                }
            ],
            "stateMutability": "view",
            "type": "function"
        },
        {
            "inputs": [
                {
                    "internalType": "address",
                    "name": "owner",
                    "type": "address"
                },
                {
                    "internalType": "address",
                    "name": "operator",
                    "type": "address"
                }
            ],
            "name": "isApprovedForAll",
            "outputs": [
                {
                    "internalType": "bool",
                    "name": "",
                    "type": "bool"
                }
            ],
            "stateMutability": "view",
            "type": "function"
        },
        {
            "inputs": [],
            "name": "isOwner",
            "outputs": [
                {
                    "internalType": "bool",
                    "name": "",
                    "type": "bool"
                }
            ],
            "stateMutability": "view",
            "type": "function"
        },
        {
            "inputs": [],
            "name": "name",
            "outputs": [
                {
                    "internalType": "string",
                    "name": "",
                    "type": "string"
                }
            ],
            "stateMutability": "view",
            "type": "function"
        },
        {
            "inputs": [
                {
                    "internalType": "uint256",
                    "name": "",
                    "type": "uint256"
                }
            ],
            "name": "names",
            "outputs": [
                {
                    "internalType": "string",
                    "name": "",
                    "type": "string"
                }
            ],
            "stateMutability": "view",
            "type": "function"
        },
        {
            "inputs": [],
            "name": "owner",
            "outputs": [
                {
                    "internalType": "address payable",
                    "name": "",
                    "type": "address"
                }
            ],
            "stateMutability": "view",
            "type": "function"
        },
        {
            "inputs": [
                {
                    "internalType": "uint256",
                    "name": "tokenId",
                    "type": "uint256"
                }
            ],
            "name": "ownerOf",
            "outputs": [
                {
                    "internalType": "address",
                    "name": "",
                    "type": "address"
                }
            ],
            "stateMutability": "view",
            "type": "function"
        },
        {
            "inputs": [
                {
                    "internalType": "string",
                    "name": "name",
                    "type": "string"
                }
            ],
            "name": "price",
            "outputs": [
                {
                    "internalType": "uint256",
                    "name": "",
                    "type": "uint256"
                }
            ],
            "stateMutability": "pure",
            "type": "function"
        },
        {
            "inputs": [
                {
                    "internalType": "string",
                    "name": "",
                    "type": "string"
                }
            ],
            "name": "records",
            "outputs": [
                {
                    "internalType": "string",
                    "name": "",
                    "type": "string"
                }
            ],
            "stateMutability": "view",
            "type": "function"
        },
        {
            "inputs": [
                {
                    "internalType": "string",
                    "name": "name",
                    "type": "string"
                }
            ],
            "name": "register",
            "outputs": [],
            "stateMutability": "payable",
            "type": "function"
        },
        {
            "inputs": [
                {
                    "internalType": "address",
                    "name": "from",
                    "type": "address"
                },
                {
                    "internalType": "address",
                    "name": "to",
                    "type": "address"
                },
                {
                    "internalType": "uint256",
                    "name": "tokenId",
                    "type": "uint256"
                }
            ],
            "name": "safeTransferFrom",
            "outputs": [],
            "stateMutability": "nonpayable",
            "type": "function"
        },
        {
            "inputs": [
                {
                    "internalType": "address",
                    "name": "from",
                    "type": "address"
                },
                {
                    "internalType": "address",
                    "name": "to",
                    "type": "address"
                },
                {
                    "internalType": "uint256",
                    "name": "tokenId",
                    "type": "uint256"
                },
                {
                    "internalType": "bytes",
                    "name": "_data",
                    "type": "bytes"
                }
            ],
            "name": "safeTransferFrom",
            "outputs": [],
            "stateMutability": "nonpayable",
            "type": "function"
        },
        {
            "inputs": [
                {
                    "internalType": "address",
                    "name": "operator",
                    "type": "address"
                },
                {
                    "internalType": "bool",
                    "name": "approved",
                    "type": "bool"
                }
            ],
            "name": "setApprovalForAll",
            "outputs": [],
            "stateMutability": "nonpayable",
            "type": "function"
        },
        {
            "inputs": [
                {
                    "internalType": "string",
                    "name": "name",
                    "type": "string"
                },
                {
                    "internalType": "string",
                    "name": "record",
                    "type": "string"
                }
            ],
            "name": "setRecord",
            "outputs": [],
            "stateMutability": "nonpayable",
            "type": "function"
        },
        {
            "inputs": [
                {
                    "internalType": "bytes4",
                    "name": "interfaceId",
                    "type": "bytes4"
                }
            ],
            "name": "supportsInterface",
            "outputs": [
                {
                    "internalType": "bool",
                    "name": "",
                    "type": "bool"
                }
            ],
            "stateMutability": "view",
            "type": "function"
        },
        {
            "inputs": [],
            "name": "symbol",
            "outputs": [
                {
                    "internalType": "string",
                    "name": "",
                    "type": "string"
                }
            ],
            "stateMutability": "view",
            "type": "function"
        },
        {
            "inputs": [],
            "name": "tld",
            "outputs": [
                {
                    "internalType": "string",
                    "name": "",
                    "type": "string"
                }
            ],
            "stateMutability": "view",
            "type": "function"
        },
        {
            "inputs": [
                {
                    "internalType": "uint256",
                    "name": "tokenId",
                    "type": "uint256"
                }
            ],
            "name": "tokenURI",
            "outputs": [
                {
                    "internalType": "string",
                    "name": "",
                    "type": "string"
                }
            ],
            "stateMutability": "view",
            "type": "function"
        },
        {
            "inputs": [
                {
                    "internalType": "address",
                    "name": "from",
                    "type": "address"
                },
                {
                    "internalType": "address",
                    "name": "to",
                    "type": "address"
                },
                {
                    "internalType": "uint256",
                    "name": "tokenId",
                    "type": "uint256"
                }
            ],
            "name": "transferFrom",
            "outputs": [],
            "stateMutability": "nonpayable",
            "type": "function"
        },
        {
            "inputs": [
                {
                    "internalType": "string",
                    "name": "name",
                    "type": "string"
                }
            ],
            "name": "valid",
            "outputs": [
                {
                    "internalType": "bool",
                    "name": "",
                    "type": "bool"
                }
            ],
            "stateMutability": "pure",
            "type": "function"
        },
        {
            "inputs": [],
            "name": "withdraw",
            "outputs": [],
            "stateMutability": "nonpayable",
            "type": "function"
        }
    ],
    "bytecode": "0x6080604052604051806107a0016040528061076c81526020016200541061076c91396009908051906020019062000038929190620002c8565b506040518060400160405280600d81526020017f3c2f746578743e3c2f7376673e00000000000000000000000000000000000000815250600a908051906020019062000086929190620002c8565b5060405162005b7c38038062005b7c8339818101604052810190620000ac919062000515565b6040518060400160405280601181526020017f4865726f204e616d6520536572766963650000000000000000000000000000008152506040518060400160405280600381526020017f484e530000000000000000000000000000000000000000000000000000000000815250816000908051906020019062000130929190620002c8565b50806001908051906020019062000149929190620002c8565b50505033600e60006101000a81548173ffffffffffffffffffffffffffffffffffffffff021916908373ffffffffffffffffffffffffffffffffffffffff1602179055508060089080519060200190620001a5929190620002c8565b50620001f26040518060400160405280601881526020017f2573206e616d652073657276696365206465706c6f796564000000000000000081525082620001f960201b62001c7c1760201c565b5062000663565b6200029b828260405160240162000212929190620005c3565b6040516020818303038152906040527f4b5c4277000000000000000000000000000000000000000000000000000000007bffffffffffffffffffffffffffffffffffffffffffffffffffffffff19166020820180517bffffffffffffffffffffffffffffffffffffffffffffffffffffffff83818316178352505050506200029f60201b60201c565b5050565b60008151905060006a636f6e736f6c652e6c6f679050602083016000808483855afa5050505050565b828054620002d6906200062d565b90600052602060002090601f016020900481019282620002fa576000855562000346565b82601f106200031557805160ff191683800117855562000346565b8280016001018555821562000346579182015b828111156200034557825182559160200191906001019062000328565b5b50905062000355919062000359565b5090565b5b80821115620003745760008160009055506001016200035a565b5090565b6000604051905090565b600080fd5b600080fd5b600080fd5b600080fd5b6000601f19601f8301169050919050565b7f4e487b7100000000000000000000000000000000000000000000000000000000600052604160045260246000fd5b620003e18262000396565b810181811067ffffffffffffffff82111715620004035762000402620003a7565b5b80604052505050565b60006200041862000378565b9050620004268282620003d6565b919050565b600067ffffffffffffffff821115620004495762000448620003a7565b5b620004548262000396565b9050602081019050919050565b60005b838110156200048157808201518184015260208101905062000464565b8381111562000491576000848401525b50505050565b6000620004ae620004a8846200042b565b6200040c565b905082815260208101848484011115620004cd57620004cc62000391565b5b620004da84828562000461565b509392505050565b600082601f830112620004fa57620004f96200038c565b5b81516200050c84826020860162000497565b91505092915050565b6000602082840312156200052e576200052d62000382565b5b600082015167ffffffffffffffff8111156200054f576200054e62000387565b5b6200055d84828501620004e2565b91505092915050565b600081519050919050565b600082825260208201905092915050565b60006200058f8262000566565b6200059b818562000571565b9350620005ad81856020860162000461565b620005b88162000396565b840191505092915050565b60006040820190508181036000830152620005df818562000582565b90508181036020830152620005f5818462000582565b90509392505050565b7f4e487b7100000000000000000000000000000000000000000000000000000000600052602260045260246000fd5b600060028204905060018216806200064657607f821691505b602082108114156200065d576200065c620005fe565b5b50919050565b614d9d80620006736000396000f3fe60806040526004361061019c5760003560e01c806370a08231116100ec578063bf40fac11161008a578063e985e9c511610064578063e985e9c514610624578063f2c298be14610661578063fb825e5f1461067d578063fe2c6198146106a85761019c565b8063bf40fac114610581578063c1880a98146105be578063c87b56dd146105e75761019c565b806395d89b41116100c657806395d89b41146104c75780639791c097146104f2578063a22cb4651461052f578063b88d4fde146105585761019c565b806370a08231146104345780638da5cb5b146104715780638f32d59b1461049c5761019c565b8063264492351161015957806342842e0e1161013357806342842e0e146103545780634622ab031461037d578063541e771d146103ba5780636352211e146103f75761019c565b806326449235146102d55780632d551432146103125780633ccfd60b1461033d5761019c565b806301ffc9a7146101a157806306fdde03146101de578063081812fc14610209578063095ea7b31461024657806311dd88451461026f57806323b872dd146102ac575b600080fd5b3480156101ad57600080fd5b506101c860048036038101906101c39190613161565b6106e5565b6040516101d591906131a9565b60405180910390f35b3480156101ea57600080fd5b506101f36107c7565b604051610200919061325d565b60405180910390f35b34801561021557600080fd5b50610230600480360381019061022b91906132b5565b610859565b60405161023d9190613323565b60405180910390f35b34801561025257600080fd5b5061026d6004803603810190610268919061336a565b6108de565b005b34801561027b57600080fd5b506102966004803603810190610291919061340f565b6109f6565b6040516102a3919061325d565b60405180910390f35b3480156102b857600080fd5b506102d360048036038101906102ce919061345c565b610aa9565b005b3480156102e157600080fd5b506102fc60048036038101906102f791906135df565b610b09565b6040516103099190613323565b60405180910390f35b34801561031e57600080fd5b50610327610b52565b604051610334919061325d565b60405180910390f35b34801561034957600080fd5b50610352610be0565b005b34801561036057600080fd5b5061037b6004803603810190610376919061345c565b610ca6565b005b34801561038957600080fd5b506103a4600480360381019061039f91906132b5565b610cc6565b6040516103b1919061325d565b60405180910390f35b3480156103c657600080fd5b506103e160048036038101906103dc91906135df565b610d66565b6040516103ee919061325d565b60405180910390f35b34801561040357600080fd5b5061041e600480360381019061041991906132b5565b610e1c565b60405161042b9190613323565b60405180910390f35b34801561044057600080fd5b5061045b60048036038101906104569190613628565b610ece565b6040516104689190613664565b60405180910390f35b34801561047d57600080fd5b50610486610f86565b60405161049391906136a0565b60405180910390f35b3480156104a857600080fd5b506104b1610fac565b6040516104be91906131a9565b60405180910390f35b3480156104d357600080fd5b506104dc611004565b6040516104e9919061325d565b60405180910390f35b3480156104fe57600080fd5b506105196004803603810190610514919061340f565b611096565b60405161052691906131a9565b60405180910390f35b34801561053b57600080fd5b50610556600480360381019061055191906136e7565b61114a565b005b34801561056457600080fd5b5061057f600480360381019061057a91906137c8565b611160565b005b34801561058d57600080fd5b506105a860048036038101906105a3919061340f565b6111c2565b6040516105b59190613323565b60405180910390f35b3480156105ca57600080fd5b506105e560048036038101906105e0919061384b565b61120d565b005b3480156105f357600080fd5b5061060e600480360381019061060991906132b5565b6112e8565b60405161061b919061325d565b60405180910390f35b34801561063057600080fd5b5061064b600480360381019061064691906138cc565b61143a565b60405161065891906131a9565b60405180910390f35b61067b6004803603810190610676919061340f565b6114ce565b005b34801561068957600080fd5b506106926119f8565b60405161069f9190613a18565b60405180910390f35b3480156106b457600080fd5b506106cf60048036038101906106ca919061340f565b611bd6565b6040516106dc9190613664565b60405180910390f35b60007f80ac58cd000000000000000000000000000000000000000000000000000000007bffffffffffffffffffffffffffffffffffffffffffffffffffffffff1916827bffffffffffffffffffffffffffffffffffffffffffffffffffffffff191614806107b057507f5b5e139f000000000000000000000000000000000000000000000000000000007bffffffffffffffffffffffffffffffffffffffffffffffffffffffff1916827bffffffffffffffffffffffffffffffffffffffffffffffffffffffff1916145b806107c057506107bf82611d18565b5b9050919050565b6060600080546107d690613a69565b80601f016020809104026020016040519081016040528092919081815260200182805461080290613a69565b801561084f5780601f106108245761010080835404028352916020019161084f565b820191906000526020600020905b81548152906001019060200180831161083257829003601f168201915b5050505050905090565b600061086482611d82565b6108a3576040517f08c379a000000000000000000000000000000000000000000000000000000000815260040161089a90613b0d565b60405180910390fd5b6004600083815260200190815260200160002060009054906101000a900473ffffffffffffffffffffffffffffffffffffffff169050919050565b60006108e982610e1c565b90508073ffffffffffffffffffffffffffffffffffffffff168373ffffffffffffffffffffffffffffffffffffffff16141561095a576040517f08c379a000000000000000000000000000000000000000000000000000000000815260040161095190613b9f565b60405180910390fd5b8073ffffffffffffffffffffffffffffffffffffffff16610979611dee565b73ffffffffffffffffffffffffffffffffffffffff1614806109a857506109a7816109a2611dee565b61143a565b5b6109e7576040517f08c379a00000000000000000000000000000000000000000000000000000000081526004016109de90613c31565b60405180910390fd5b6109f18383611df6565b505050565b6060600c8383604051610a0a929190613c81565b90815260200160405180910390208054610a2390613a69565b80601f0160208091040260200160405190810160405280929190818152602001828054610a4f90613a69565b8015610a9c5780601f10610a7157610100808354040283529160200191610a9c565b820191906000526020600020905b815481529060010190602001808311610a7f57829003601f168201915b5050505050905092915050565b610aba610ab4611dee565b82611eaf565b610af9576040517f08c379a0000000000000000000000000000000000000000000000000000000008152600401610af090613d0c565b60405180910390fd5b610b04838383611f8d565b505050565b600b818051602081018201805184825260208301602085012081835280955050505050506000915054906101000a900473ffffffffffffffffffffffffffffffffffffffff1681565b60088054610b5f90613a69565b80601f0160208091040260200160405190810160405280929190818152602001828054610b8b90613a69565b8015610bd85780601f10610bad57610100808354040283529160200191610bd8565b820191906000526020600020905b815481529060010190602001808311610bbb57829003601f168201915b505050505081565b610be8610fac565b610bf157600080fd5b600047905060003373ffffffffffffffffffffffffffffffffffffffff1682604051610c1c90613d5d565b60006040518083038185875af1925050503d8060008114610c59576040519150601f19603f3d011682016040523d82523d6000602084013e610c5e565b606091505b5050905080610ca2576040517f08c379a0000000000000000000000000000000000000000000000000000000008152600401610c9990613dbe565b60405180910390fd5b5050565b610cc183838360405180602001604052806000815250611160565b505050565b600d6020528060005260406000206000915090508054610ce590613a69565b80601f0160208091040260200160405190810160405280929190818152602001828054610d1190613a69565b8015610d5e5780601f10610d3357610100808354040283529160200191610d5e565b820191906000526020600020905b815481529060010190602001808311610d4157829003601f168201915b505050505081565b600c818051602081018201805184825260208301602085012081835280955050505050506000915090508054610d9b90613a69565b80601f0160208091040260200160405190810160405280929190818152602001828054610dc790613a69565b8015610e145780601f10610de957610100808354040283529160200191610e14565b820191906000526020600020905b815481529060010190602001808311610df757829003601f168201915b505050505081565b6000806002600084815260200190815260200160002060009054906101000a900473ffffffffffffffffffffffffffffffffffffffff169050600073ffffffffffffffffffffffffffffffffffffffff168173ffffffffffffffffffffffffffffffffffffffff161415610ec5576040517f08c379a0000000000000000000000000000000000000000000000000000000008152600401610ebc90613e50565b60405180910390fd5b80915050919050565b60008073ffffffffffffffffffffffffffffffffffffffff168273ffffffffffffffffffffffffffffffffffffffff161415610f3f576040517f08c379a0000000000000000000000000000000000000000000000000000000008152600401610f3690613ee2565b60405180910390fd5b600360008373ffffffffffffffffffffffffffffffffffffffff1673ffffffffffffffffffffffffffffffffffffffff168152602001908152602001600020549050919050565b600e60009054906101000a900473ffffffffffffffffffffffffffffffffffffffff1681565b6000600e60009054906101000a900473ffffffffffffffffffffffffffffffffffffffff1673ffffffffffffffffffffffffffffffffffffffff163373ffffffffffffffffffffffffffffffffffffffff1614905090565b60606001805461101390613a69565b80601f016020809104026020016040519081016040528092919081815260200182805461103f90613a69565b801561108c5780601f106110615761010080835404028352916020019161108c565b820191906000526020600020905b81548152906001019060200180831161106f57829003601f168201915b5050505050905090565b600060036110e784848080601f016020809104026020016040519081016040528093929190818152602001838380828437600081840152601f19601f820116905080830192505050505050506121f4565b101580156111425750600a61113f84848080601f016020809104026020016040519081016040528093929190818152602001838380828437600081840152601f19601f820116905080830192505050505050506121f4565b11155b905092915050565b61115c611155611dee565b83836123a9565b5050565b61117161116b611dee565b83611eaf565b6111b0576040517f08c379a00000000000000000000000000000000000000000000000000000000081526004016111a790613d0c565b60405180910390fd5b6111bc84848484612516565b50505050565b6000600b83836040516111d6929190613c81565b908152602001604051809103902060009054906101000a900473ffffffffffffffffffffffffffffffffffffffff16905092915050565b600b848460405161121f929190613c81565b908152602001604051809103902060009054906101000a900473ffffffffffffffffffffffffffffffffffffffff1673ffffffffffffffffffffffffffffffffffffffff163373ffffffffffffffffffffffffffffffffffffffff16146112b2576040517f82b4290000000000000000000000000000000000000000000000000000000000815260040160405180910390fd5b8181600c86866040516112c6929190613c81565b908152602001604051809103902091906112e1929190612fcc565b5050505050565b60606112f382611d82565b611332576040517f08c379a000000000000000000000000000000000000000000000000000000000815260040161132990613f74565b60405180910390fd5b600060066000848152602001908152602001600020805461135290613a69565b80601f016020809104026020016040519081016040528092919081815260200182805461137e90613a69565b80156113cb5780601f106113a0576101008083540402835291602001916113cb565b820191906000526020600020905b8154815290600101906020018083116113ae57829003601f168201915b5050505050905060006113dc612572565b90506000815114156113f2578192505050611435565b60008251111561142757808260405160200161140f929190613fc5565b60405160208183030381529060405292505050611435565b61143084612589565b925050505b919050565b6000600560008473ffffffffffffffffffffffffffffffffffffffff1673ffffffffffffffffffffffffffffffffffffffff16815260200190815260200160002060008373ffffffffffffffffffffffffffffffffffffffff1673ffffffffffffffffffffffffffffffffffffffff16815260200190815260200160002060009054906101000a900460ff16905092915050565b600073ffffffffffffffffffffffffffffffffffffffff16600b83836040516114f8929190613c81565b908152602001604051809103902060009054906101000a900473ffffffffffffffffffffffffffffffffffffffff1673ffffffffffffffffffffffffffffffffffffffff1614611574576040517f3a81d6fc00000000000000000000000000000000000000000000000000000000815260040160405180910390fd5b61157e8282611096565b6115c15781816040517f7f19f48d0000000000000000000000000000000000000000000000000000000081526004016115b8929190614016565b60405180910390fd5b60003073ffffffffffffffffffffffffffffffffffffffff1663fe2c619884846040518363ffffffff1660e01b81526004016115fe929190614016565b602060405180830381865afa15801561161b573d6000803e3d6000fd5b505050506040513d601f19601f8201168201806040525081019061163f919061404f565b905080341015611684576040517f08c379a000000000000000000000000000000000000000000000000000000000815260040161167b906140c8565b60405180910390fd5b60008383600860405160200161169c939291906141c8565b60405160208183030381529060405290506000600982600a6040516020016116c6939291906141f9565b604051602081830303815290604052905060006116e36007612630565b9050600061173487878080601f016020809104026020016040519081016040528093929190818152602001838380828437600081840152601f19601f820116905080830192505050505050506121f4565b905060006117418261263e565b9050611835604051806060016040528060318152602001614cf76031913989898080601f016020809104026020016040519081016040528093929190818152602001838380828437600081840152601f19601f82011690508083019250505050505050600880546117b190613a69565b80601f01602080910402602001604051908101604052809291908181526020018280546117dd90613a69565b801561182a5780601f106117ff5761010080835404028352916020019161182a565b820191906000526020600020905b81548152906001019060200180831161180d57829003601f168201915b50505050508661279f565b600061186b8661184487612841565b84604051602001611857939291906143a6565b604051602081830303815290604052612841565b9050600081604051602001611880919061444f565b60405160208183030381529060405290506118cf6040518060400160405280601281526020017f0a2d2d2d2d2d2d2d2d2d2d2d2d2d2d2d2d2d00000000000000000000000000008152506129d9565b61190e6040518060400160405280600e81526020017f46696e616c20746f6b656e55524900000000000000000000000000000000000081525082611c7c565b61194c6040518060400160405280601481526020017f2d2d2d2d2d2d2d2d2d2d2d2d2d2d2d2d2d2d2d0a0000000000000000000000008152506129d9565b6119563386612a72565b6119608582612a90565b33600b8b8b604051611973929190613c81565b908152602001604051809103902060006101000a81548173ffffffffffffffffffffffffffffffffffffffff021916908373ffffffffffffffffffffffffffffffffffffffff1602179055508989600d600088815260200190815260200160002091906119e1929190612fcc565b506119ec6007612b04565b50505050505050505050565b6060611a386040518060400160405280601f81526020017f47657474696e6720616c6c206e616d65732066726f6d20636f6e7472616374008152506129d9565b6000611a446007612630565b67ffffffffffffffff811115611a5d57611a5c6134b4565b5b604051908082528060200260200182016040528015611a9057816020015b6060815260200190600190039081611a7b5790505b50905060005b611aa06007612630565b811015611bce57600d60008281526020019081526020016000208054611ac590613a69565b80601f0160208091040260200160405190810160405280929190818152602001828054611af190613a69565b8015611b3e5780601f10611b1357610100808354040283529160200191611b3e565b820191906000526020600020905b815481529060010190602001808311611b2157829003601f168201915b5050505050828281518110611b5657611b55614471565b5b6020026020010181905250611bbb6040518060400160405280601781526020017f4e616d6520666f7220746f6b656e20256420697320257300000000000000000081525082848481518110611bae57611bad614471565b5b6020026020010151612b1a565b8080611bc6906144cf565b915050611a96565b508091505090565b600080611c2684848080601f016020809104026020016040519081016040528093929190818152602001838380828437600081840152601f19601f820116905080830192505050505050506121f4565b905060008111611c3557600080fd5b6003811415611c4f576706f05b59d3b20000915050611c76565b6004811415611c6957670429d069189e0000915050611c76565b67016345785d8a00009150505b92915050565b611d148282604051602401611c92929190614518565b6040516020818303038152906040527f4b5c4277000000000000000000000000000000000000000000000000000000007bffffffffffffffffffffffffffffffffffffffffffffffffffffffff19166020820180517bffffffffffffffffffffffffffffffffffffffffffffffffffffffff8381831617835250505050612bb9565b5050565b60007f01ffc9a7000000000000000000000000000000000000000000000000000000007bffffffffffffffffffffffffffffffffffffffffffffffffffffffff1916827bffffffffffffffffffffffffffffffffffffffffffffffffffffffff1916149050919050565b60008073ffffffffffffffffffffffffffffffffffffffff166002600084815260200190815260200160002060009054906101000a900473ffffffffffffffffffffffffffffffffffffffff1673ffffffffffffffffffffffffffffffffffffffff1614159050919050565b600033905090565b816004600083815260200190815260200160002060006101000a81548173ffffffffffffffffffffffffffffffffffffffff021916908373ffffffffffffffffffffffffffffffffffffffff160217905550808273ffffffffffffffffffffffffffffffffffffffff16611e6983610e1c565b73ffffffffffffffffffffffffffffffffffffffff167f8c5be1e5ebec7d5bd14f71427d1e84f3dd0314c0f7b2291e5b200ac8c7c3b92560405160405180910390a45050565b6000611eba82611d82565b611ef9576040517f08c379a0000000000000000000000000000000000000000000000000000000008152600401611ef0906145c1565b60405180910390fd5b6000611f0483610e1c565b90508073ffffffffffffffffffffffffffffffffffffffff168473ffffffffffffffffffffffffffffffffffffffff161480611f7357508373ffffffffffffffffffffffffffffffffffffffff16611f5b84610859565b73ffffffffffffffffffffffffffffffffffffffff16145b80611f845750611f83818561143a565b5b91505092915050565b8273ffffffffffffffffffffffffffffffffffffffff16611fad82610e1c565b73ffffffffffffffffffffffffffffffffffffffff1614612003576040517f08c379a0000000000000000000000000000000000000000000000000000000008152600401611ffa90614653565b60405180910390fd5b600073ffffffffffffffffffffffffffffffffffffffff168273ffffffffffffffffffffffffffffffffffffffff161415612073576040517f08c379a000000000000000000000000000000000000000000000000000000000815260040161206a906146e5565b60405180910390fd5b61207e838383612be2565b612089600082611df6565b6001600360008573ffffffffffffffffffffffffffffffffffffffff1673ffffffffffffffffffffffffffffffffffffffff16815260200190815260200160002060008282546120d99190614705565b925050819055506001600360008473ffffffffffffffffffffffffffffffffffffffff1673ffffffffffffffffffffffffffffffffffffffff16815260200190815260200160002060008282546121309190614739565b92505081905550816002600083815260200190815260200160002060006101000a81548173ffffffffffffffffffffffffffffffffffffffff021916908373ffffffffffffffffffffffffffffffffffffffff160217905550808273ffffffffffffffffffffffffffffffffffffffff168473ffffffffffffffffffffffffffffffffffffffff167fddf252ad1be2c89b69c2b068fc378daa952ba7f163c4a11628f55a4df523b3ef60405160405180910390a46121ef838383612be7565b505050565b60008060008084519050600092505b8082101561239e5760008583815181106122205761221f614471565b5b602001015160f81c60f81b9050608060f81b817effffffffffffffffffffffffffffffffffffffffffffffffffffffffffffff1916101561226f576001836122689190614739565b925061238a565b60e060f81b817effffffffffffffffffffffffffffffffffffffffffffffffffffffffffffff191610156122b1576002836122aa9190614739565b9250612389565b60f060f81b817effffffffffffffffffffffffffffffffffffffffffffffffffffffffffffff191610156122f3576003836122ec9190614739565b9250612388565b60f8801b817effffffffffffffffffffffffffffffffffffffffffffffffffffffffffffff191610156123345760048361232d9190614739565b9250612387565b60fc60f81b817effffffffffffffffffffffffffffffffffffffffffffffffffffffffffffff191610156123765760058361236f9190614739565b9250612386565b6006836123839190614739565b92505b5b5b5b5b508280612396906144cf565b935050612203565b829350505050919050565b8173ffffffffffffffffffffffffffffffffffffffff168373ffffffffffffffffffffffffffffffffffffffff161415612418576040517f08c379a000000000000000000000000000000000000000000000000000000000815260040161240f906147db565b60405180910390fd5b80600560008573ffffffffffffffffffffffffffffffffffffffff1673ffffffffffffffffffffffffffffffffffffffff16815260200190815260200160002060008473ffffffffffffffffffffffffffffffffffffffff1673ffffffffffffffffffffffffffffffffffffffff16815260200190815260200160002060006101000a81548160ff0219169083151502179055508173ffffffffffffffffffffffffffffffffffffffff168373ffffffffffffffffffffffffffffffffffffffff167f17307eab39ab6107e8899845ad3d59bd9653f200f220920489ca2b5937696c318360405161250991906131a9565b60405180910390a3505050565b612521848484611f8d565b61252d84848484612bec565b61256c576040517f08c379a00000000000000000000000000000000000000000000000000000000081526004016125639061486d565b60405180910390fd5b50505050565b606060405180602001604052806000815250905090565b606061259482611d82565b6125d3576040517f08c379a00000000000000000000000000000000000000000000000000000000081526004016125ca906148ff565b60405180910390fd5b60006125dd612572565b905060008151116125fd5760405180602001604052806000815250612628565b806126078461263e565b604051602001612618929190613fc5565b6040516020818303038152906040525b915050919050565b600081600001549050919050565b60606000821415612686576040518060400160405280600181526020017f3000000000000000000000000000000000000000000000000000000000000000815250905061279a565b600082905060005b600082146126b85780806126a1906144cf565b915050600a826126b1919061494e565b915061268e565b60008167ffffffffffffffff8111156126d4576126d36134b4565b5b6040519080825280601f01601f1916602001820160405280156127065781602001600182028036833780820191505090505b5090505b600085146127935760018261271f9190614705565b9150600a8561272e919061497f565b603061273a9190614739565b60f81b8183815181106127505761274f614471565b5b60200101907effffffffffffffffffffffffffffffffffffffffffffffffffffffffffffff1916908160001a905350600a8561278c919061494e565b945061270a565b8093505050505b919050565b61283b848484846040516024016127b994939291906149b0565b6040516020818303038152906040527f9fd009f5000000000000000000000000000000000000000000000000000000007bffffffffffffffffffffffffffffffffffffffffffffffffffffffff19166020820180517bffffffffffffffffffffffffffffffffffffffffffffffffffffffff8381831617835250505050612bb9565b50505050565b6060600082519050600081141561286a57604051806020016040528060008152509150506129d4565b6000600360028361287b9190614739565b612885919061494e565b60046128919190614a0a565b905060006020826128a29190614739565b67ffffffffffffffff8111156128bb576128ba6134b4565b5b6040519080825280601f01601f1916602001820160405280156128ed5781602001600182028036833780820191505090505b5090506000604051806060016040528060408152602001614d28604091399050600181016020830160005b868110156129915760038101905062ffffff818a015116603f8160121c168401518060081b905060ff603f83600c1c1686015116810190508060081b905060ff603f8360061c1686015116810190508060081b905060ff603f831686015116810190508060e01b90508084526004840193505050612918565b5060038606600181146129ab57600281146129bb576129c6565b613d3d60f01b60028303526129c6565b603d60f81b60018303525b508484525050819450505050505b919050565b612a6f816040516024016129ed919061325d565b6040516020818303038152906040527f41304fac000000000000000000000000000000000000000000000000000000007bffffffffffffffffffffffffffffffffffffffffffffffffffffffff19166020820180517bffffffffffffffffffffffffffffffffffffffffffffffffffffffff8381831617835250505050612bb9565b50565b612a8c828260405180602001604052806000815250612d74565b5050565b612a9982611d82565b612ad8576040517f08c379a0000000000000000000000000000000000000000000000000000000008152600401612acf90614ad6565b60405180910390fd5b80600660008481526020019081526020016000209080519060200190612aff929190613052565b505050565b6001816000016000828254019250508190555050565b612bb4838383604051602401612b3293929190614af6565b6040516020818303038152906040527fa3f5c739000000000000000000000000000000000000000000000000000000007bffffffffffffffffffffffffffffffffffffffffffffffffffffffff19166020820180517bffffffffffffffffffffffffffffffffffffffffffffffffffffffff8381831617835250505050612bb9565b505050565b60008151905060006a636f6e736f6c652e6c6f679050602083016000808483855afa5050505050565b505050565b505050565b6000612c0d8473ffffffffffffffffffffffffffffffffffffffff16612dcf565b15612d67578373ffffffffffffffffffffffffffffffffffffffff1663150b7a02612c36611dee565b8786866040518563ffffffff1660e01b8152600401612c589493929190614b90565b6020604051808303816000875af1925050508015612c9457506040513d601f19601f82011682018060405250810190612c919190614bf1565b60015b612d17573d8060008114612cc4576040519150601f19603f3d011682016040523d82523d6000602084013e612cc9565b606091505b50600081511415612d0f576040517f08c379a0000000000000000000000000000000000000000000000000000000008152600401612d069061486d565b60405180910390fd5b805181602001fd5b63150b7a0260e01b7bffffffffffffffffffffffffffffffffffffffffffffffffffffffff1916817bffffffffffffffffffffffffffffffffffffffffffffffffffffffff191614915050612d6c565b600190505b949350505050565b612d7e8383612df2565b612d8b6000848484612bec565b612dca576040517f08c379a0000000000000000000000000000000000000000000000000000000008152600401612dc19061486d565b60405180910390fd5b505050565b6000808273ffffffffffffffffffffffffffffffffffffffff163b119050919050565b600073ffffffffffffffffffffffffffffffffffffffff168273ffffffffffffffffffffffffffffffffffffffff161415612e62576040517f08c379a0000000000000000000000000000000000000000000000000000000008152600401612e5990614c6a565b60405180910390fd5b612e6b81611d82565b15612eab576040517f08c379a0000000000000000000000000000000000000000000000000000000008152600401612ea290614cd6565b60405180910390fd5b612eb760008383612be2565b6001600360008473ffffffffffffffffffffffffffffffffffffffff1673ffffffffffffffffffffffffffffffffffffffff1681526020019081526020016000206000828254612f079190614739565b92505081905550816002600083815260200190815260200160002060006101000a81548173ffffffffffffffffffffffffffffffffffffffff021916908373ffffffffffffffffffffffffffffffffffffffff160217905550808273ffffffffffffffffffffffffffffffffffffffff16600073ffffffffffffffffffffffffffffffffffffffff167fddf252ad1be2c89b69c2b068fc378daa952ba7f163c4a11628f55a4df523b3ef60405160405180910390a4612fc860008383612be7565b5050565b828054612fd890613a69565b90600052602060002090601f016020900481019282612ffa5760008555613041565b82601f1061301357803560ff1916838001178555613041565b82800160010185558215613041579182015b82811115613040578235825591602001919060010190613025565b5b50905061304e91906130d8565b5090565b82805461305e90613a69565b90600052602060002090601f01602090048101928261308057600085556130c7565b82601f1061309957805160ff19168380011785556130c7565b828001600101855582156130c7579182015b828111156130c65782518255916020019190600101906130ab565b5b5090506130d491906130d8565b5090565b5b808211156130f15760008160009055506001016130d9565b5090565b6000604051905090565b600080fd5b600080fd5b60007fffffffff0000000000000000000000000000000000000000000000000000000082169050919050565b61313e81613109565b811461314957600080fd5b50565b60008135905061315b81613135565b92915050565b600060208284031215613177576131766130ff565b5b60006131858482850161314c565b91505092915050565b60008115159050919050565b6131a38161318e565b82525050565b60006020820190506131be600083018461319a565b92915050565b600081519050919050565b600082825260208201905092915050565b60005b838110156131fe5780820151818401526020810190506131e3565b8381111561320d576000848401525b50505050565b6000601f19601f8301169050919050565b600061322f826131c4565b61323981856131cf565b93506132498185602086016131e0565b61325281613213565b840191505092915050565b600060208201905081810360008301526132778184613224565b905092915050565b6000819050919050565b6132928161327f565b811461329d57600080fd5b50565b6000813590506132af81613289565b92915050565b6000602082840312156132cb576132ca6130ff565b5b60006132d9848285016132a0565b91505092915050565b600073ffffffffffffffffffffffffffffffffffffffff82169050919050565b600061330d826132e2565b9050919050565b61331d81613302565b82525050565b60006020820190506133386000830184613314565b92915050565b61334781613302565b811461335257600080fd5b50565b6000813590506133648161333e565b92915050565b60008060408385031215613381576133806130ff565b5b600061338f85828601613355565b92505060206133a0858286016132a0565b9150509250929050565b600080fd5b600080fd5b600080fd5b60008083601f8401126133cf576133ce6133aa565b5b8235905067ffffffffffffffff8111156133ec576133eb6133af565b5b602083019150836001820283011115613408576134076133b4565b5b9250929050565b60008060208385031215613426576134256130ff565b5b600083013567ffffffffffffffff81111561344457613443613104565b5b613450858286016133b9565b92509250509250929050565b600080600060608486031215613475576134746130ff565b5b600061348386828701613355565b935050602061349486828701613355565b92505060406134a5868287016132a0565b9150509250925092565b600080fd5b7f4e487b7100000000000000000000000000000000000000000000000000000000600052604160045260246000fd5b6134ec82613213565b810181811067ffffffffffffffff8211171561350b5761350a6134b4565b5b80604052505050565b600061351e6130f5565b905061352a82826134e3565b919050565b600067ffffffffffffffff82111561354a576135496134b4565b5b61355382613213565b9050602081019050919050565b82818337600083830152505050565b600061358261357d8461352f565b613514565b90508281526020810184848401111561359e5761359d6134af565b5b6135a9848285613560565b509392505050565b600082601f8301126135c6576135c56133aa565b5b81356135d684826020860161356f565b91505092915050565b6000602082840312156135f5576135f46130ff565b5b600082013567ffffffffffffffff81111561361357613612613104565b5b61361f848285016135b1565b91505092915050565b60006020828403121561363e5761363d6130ff565b5b600061364c84828501613355565b91505092915050565b61365e8161327f565b82525050565b60006020820190506136796000830184613655565b92915050565b600061368a826132e2565b9050919050565b61369a8161367f565b82525050565b60006020820190506136b56000830184613691565b92915050565b6136c48161318e565b81146136cf57600080fd5b50565b6000813590506136e1816136bb565b92915050565b600080604083850312156136fe576136fd6130ff565b5b600061370c85828601613355565b925050602061371d858286016136d2565b9150509250929050565b600067ffffffffffffffff821115613742576137416134b4565b5b61374b82613213565b9050602081019050919050565b600061376b61376684613727565b613514565b905082815260208101848484011115613787576137866134af565b5b613792848285613560565b509392505050565b600082601f8301126137af576137ae6133aa565b5b81356137bf848260208601613758565b91505092915050565b600080600080608085870312156137e2576137e16130ff565b5b60006137f087828801613355565b945050602061380187828801613355565b9350506040613812878288016132a0565b925050606085013567ffffffffffffffff81111561383357613832613104565b5b61383f8782880161379a565b91505092959194509250565b60008060008060408587031215613865576138646130ff565b5b600085013567ffffffffffffffff81111561388357613882613104565b5b61388f878288016133b9565b9450945050602085013567ffffffffffffffff8111156138b2576138b1613104565b5b6138be878288016133b9565b925092505092959194509250565b600080604083850312156138e3576138e26130ff565b5b60006138f185828601613355565b925050602061390285828601613355565b9150509250929050565b600081519050919050565b600082825260208201905092915050565b6000819050602082019050919050565b600082825260208201905092915050565b6000613954826131c4565b61395e8185613938565b935061396e8185602086016131e0565b61397781613213565b840191505092915050565b600061398e8383613949565b905092915050565b6000602082019050919050565b60006139ae8261390c565b6139b88185613917565b9350836020820285016139ca85613928565b8060005b85811015613a0657848403895281516139e78582613982565b94506139f283613996565b925060208a019950506001810190506139ce565b50829750879550505050505092915050565b60006020820190508181036000830152613a3281846139a3565b905092915050565b7f4e487b7100000000000000000000000000000000000000000000000000000000600052602260045260246000fd5b60006002820490506001821680613a8157607f821691505b60208210811415613a9557613a94613a3a565b5b50919050565b7f4552433732313a20617070726f76656420717565727920666f72206e6f6e657860008201527f697374656e7420746f6b656e0000000000000000000000000000000000000000602082015250565b6000613af7602c836131cf565b9150613b0282613a9b565b604082019050919050565b60006020820190508181036000830152613b2681613aea565b9050919050565b7f4552433732313a20617070726f76616c20746f2063757272656e74206f776e6560008201527f7200000000000000000000000000000000000000000000000000000000000000602082015250565b6000613b896021836131cf565b9150613b9482613b2d565b604082019050919050565b60006020820190508181036000830152613bb881613b7c565b9050919050565b7f4552433732313a20617070726f76652063616c6c6572206973206e6f74206f7760008201527f6e6572206e6f7220617070726f76656420666f7220616c6c0000000000000000602082015250565b6000613c1b6038836131cf565b9150613c2682613bbf565b604082019050919050565b60006020820190508181036000830152613c4a81613c0e565b9050919050565b600081905092915050565b6000613c688385613c51565b9350613c75838584613560565b82840190509392505050565b6000613c8e828486613c5c565b91508190509392505050565b7f4552433732313a207472616e736665722063616c6c6572206973206e6f74206f60008201527f776e6572206e6f7220617070726f766564000000000000000000000000000000602082015250565b6000613cf66031836131cf565b9150613d0182613c9a565b604082019050919050565b60006020820190508181036000830152613d2581613ce9565b9050919050565b600081905092915050565b50565b6000613d47600083613d2c565b9150613d5282613d37565b600082019050919050565b6000613d6882613d3a565b9150819050919050565b7f4661696c656420746f207769746864726177204d617469630000000000000000600082015250565b6000613da86018836131cf565b9150613db382613d72565b602082019050919050565b60006020820190508181036000830152613dd781613d9b565b9050919050565b7f4552433732313a206f776e657220717565727920666f72206e6f6e657869737460008201527f656e7420746f6b656e0000000000000000000000000000000000000000000000602082015250565b6000613e3a6029836131cf565b9150613e4582613dde565b604082019050919050565b60006020820190508181036000830152613e6981613e2d565b9050919050565b7f4552433732313a2062616c616e636520717565727920666f7220746865207a6560008201527f726f206164647265737300000000000000000000000000000000000000000000602082015250565b6000613ecc602a836131cf565b9150613ed782613e70565b604082019050919050565b60006020820190508181036000830152613efb81613ebf565b9050919050565b7f45524337323155524953746f726167653a2055524920717565727920666f722060008201527f6e6f6e6578697374656e7420746f6b656e000000000000000000000000000000602082015250565b6000613f5e6031836131cf565b9150613f6982613f02565b604082019050919050565b60006020820190508181036000830152613f8d81613f51565b9050919050565b6000613f9f826131c4565b613fa98185613c51565b9350613fb98185602086016131e0565b80840191505092915050565b6000613fd18285613f94565b9150613fdd8284613f94565b91508190509392505050565b6000613ff583856131cf565b9350614002838584613560565b61400b83613213565b840190509392505050565b60006020820190508181036000830152614031818486613fe9565b90509392505050565b60008151905061404981613289565b92915050565b600060208284031215614065576140646130ff565b5b60006140738482850161403a565b91505092915050565b7f4e6f7420656e6f756768204d6174696300000000000000000000000000000000600082015250565b60006140b26010836131cf565b91506140bd8261407c565b602082019050919050565b600060208201905081810360008301526140e1816140a5565b9050919050565b7f2e00000000000000000000000000000000000000000000000000000000000000600082015250565b600061411e600183613c51565b9150614129826140e8565b600182019050919050565b60008190508160005260206000209050919050565b6000815461415681613a69565b6141608186613c51565b9450600182166000811461417b576001811461418c576141bf565b60ff198316865281860193506141bf565b61419585614134565b60005b838110156141b757815481890152600182019150602081019050614198565b838801955050505b50505092915050565b60006141d5828587613c5c565b91506141e082614111565b91506141ec8284614149565b9150819050949350505050565b60006142058286614149565b91506142118285613f94565b915061421d8284614149565b9150819050949350505050565b7f7b226e616d65223a202200000000000000000000000000000000000000000000600082015250565b6000614260600a83613c51565b915061426b8261422a565b600a82019050919050565b7f222c20226465736372697074696f6e223a20224120646f6d61696e206f6e207460008201527f6865204865726f206e616d652073657276696365222c2022696d616765223a2060208201527f22646174613a696d6167652f7376672b786d6c3b6261736536342c0000000000604082015250565b60006142f8605b83613c51565b915061430382614276565b605b82019050919050565b7f222c226c656e677468223a220000000000000000000000000000000000000000600082015250565b6000614344600c83613c51565b915061434f8261430e565b600c82019050919050565b7f227d000000000000000000000000000000000000000000000000000000000000600082015250565b6000614390600283613c51565b915061439b8261435a565b600282019050919050565b60006143b182614253565b91506143bd8286613f94565b91506143c8826142eb565b91506143d48285613f94565b91506143df82614337565b91506143eb8284613f94565b91506143f682614383565b9150819050949350505050565b7f646174613a6170706c69636174696f6e2f6a736f6e3b6261736536342c000000600082015250565b6000614439601d83613c51565b915061444482614403565b601d82019050919050565b600061445a8261442c565b91506144668284613f94565b915081905092915050565b7f4e487b7100000000000000000000000000000000000000000000000000000000600052603260045260246000fd5b7f4e487b7100000000000000000000000000000000000000000000000000000000600052601160045260246000fd5b60006144da8261327f565b91507fffffffffffffffffffffffffffffffffffffffffffffffffffffffffffffffff82141561450d5761450c6144a0565b5b600182019050919050565b600060408201905081810360008301526145328185613224565b905081810360208301526145468184613224565b90509392505050565b7f4552433732313a206f70657261746f7220717565727920666f72206e6f6e657860008201527f697374656e7420746f6b656e0000000000000000000000000000000000000000602082015250565b60006145ab602c836131cf565b91506145b68261454f565b604082019050919050565b600060208201905081810360008301526145da8161459e565b9050919050565b7f4552433732313a207472616e736665722066726f6d20696e636f72726563742060008201527f6f776e6572000000000000000000000000000000000000000000000000000000602082015250565b600061463d6025836131cf565b9150614648826145e1565b604082019050919050565b6000602082019050818103600083015261466c81614630565b9050919050565b7f4552433732313a207472616e7366657220746f20746865207a65726f2061646460008201527f7265737300000000000000000000000000000000000000000000000000000000602082015250565b60006146cf6024836131cf565b91506146da82614673565b604082019050919050565b600060208201905081810360008301526146fe816146c2565b9050919050565b60006147108261327f565b915061471b8361327f565b92508282101561472e5761472d6144a0565b5b828203905092915050565b60006147448261327f565b915061474f8361327f565b9250827fffffffffffffffffffffffffffffffffffffffffffffffffffffffffffffffff03821115614784576147836144a0565b5b828201905092915050565b7f4552433732313a20617070726f766520746f2063616c6c657200000000000000600082015250565b60006147c56019836131cf565b91506147d08261478f565b602082019050919050565b600060208201905081810360008301526147f4816147b8565b9050919050565b7f4552433732313a207472616e7366657220746f206e6f6e20455243373231526560008201527f63656976657220696d706c656d656e7465720000000000000000000000000000602082015250565b60006148576032836131cf565b9150614862826147fb565b604082019050919050565b600060208201905081810360008301526148868161484a565b9050919050565b7f4552433732314d657461646174613a2055524920717565727920666f72206e6f60008201527f6e6578697374656e7420746f6b656e0000000000000000000000000000000000602082015250565b60006148e9602f836131cf565b91506148f48261488d565b604082019050919050565b60006020820190508181036000830152614918816148dc565b9050919050565b7f4e487b7100000000000000000000000000000000000000000000000000000000600052601260045260246000fd5b60006149598261327f565b91506149648361327f565b9250826149745761497361491f565b5b828204905092915050565b600061498a8261327f565b91506149958361327f565b9250826149a5576149a461491f565b5b828206905092915050565b600060808201905081810360008301526149ca8187613224565b905081810360208301526149de8186613224565b905081810360408301526149f28185613224565b9050614a016060830184613655565b95945050505050565b6000614a158261327f565b9150614a208361327f565b9250817fffffffffffffffffffffffffffffffffffffffffffffffffffffffffffffffff0483118215151615614a5957614a586144a0565b5b828202905092915050565b7f45524337323155524953746f726167653a2055524920736574206f66206e6f6e60008201527f6578697374656e7420746f6b656e000000000000000000000000000000000000602082015250565b6000614ac0602e836131cf565b9150614acb82614a64565b604082019050919050565b60006020820190508181036000830152614aef81614ab3565b9050919050565b60006060820190508181036000830152614b108186613224565b9050614b1f6020830185613655565b8181036040830152614b318184613224565b9050949350505050565b600081519050919050565b600082825260208201905092915050565b6000614b6282614b3b565b614b6c8185614b46565b9350614b7c8185602086016131e0565b614b8581613213565b840191505092915050565b6000608082019050614ba56000830187613314565b614bb26020830186613314565b614bbf6040830185613655565b8181036060830152614bd18184614b57565b905095945050505050565b600081519050614beb81613135565b92915050565b600060208284031215614c0757614c066130ff565b5b6000614c1584828501614bdc565b91505092915050565b7f4552433732313a206d696e7420746f20746865207a65726f2061646472657373600082015250565b6000614c546020836131cf565b9150614c5f82614c1e565b602082019050919050565b60006020820190508181036000830152614c8381614c47565b9050919050565b7f4552433732313a20746f6b656e20616c7265616479206d696e74656400000000600082015250565b6000614cc0601c836131cf565b9150614ccb82614c8a565b602082019050919050565b60006020820190508181036000830152614cef81614cb3565b905091905056fe5265676973746572696e672025732e2573206f6e2074686520636f6e7472616374207769746820746f6b656e49442025644142434445464748494a4b4c4d4e4f505152535455565758595a6162636465666768696a6b6c6d6e6f707172737475767778797a303132333435363738392b2fa2646970667358221220391a974a6bb14a722c0562c6430ef0ee8783336ba63713b5637c867f254e848364736f6c634300080a00333c73766720786d6c6e733d22687474703a2f2f7777772e77332e6f72672f323030302f737667222077696474683d2232373022206865696768743d22323730222066696c6c3d226e6f6e65223e3c706174682066696c6c3d2275726c282361292220643d224d302030683237307632373048307a222f3e3c646566733e3c66696c7465722069643d22622220636f6c6f722d696e746572706f6c6174696f6e2d66696c746572733d2273524742222066696c746572556e6974733d227573657253706163654f6e55736522206865696768743d22323730222077696474683d22323730223e3c666544726f70536861646f772064783d2230222064793d22312220737464446576696174696f6e3d22322220666c6f6f642d6f7061636974793d222e323235222077696474683d223230302522206865696768743d2232303025222f3e3c2f66696c7465723e3c2f646566733e3c7061746820643d224d37322e3836332034322e39343961342e33383220342e3338322030203020302d342e33393420306c2d31302e30383120362e3033322d362e383520332e3933342d31302e30383120362e30333261342e33383220342e3338322030203020312d342e33393420306c2d382e3031332d342e37323161342e353220342e35322030203020312d312e3538392d312e36313620342e353420342e35342030203020312d2e3630382d322e313837762d392e333161342e323720342e3237203020302031202e3537322d322e32303820342e323520342e323520302030203120312e3632352d312e3539356c372e3838342d342e353961342e33383220342e33383220302030203120342e33393420306c372e38383420342e353961342e353220342e353220302030203120312e35383920312e36313620342e353420342e3534203020302031202e36303820322e31383776362e3033326c362e38352d342e303635762d362e30333261342e323720342e32372030203020302d2e3537322d322e32303820342e323520342e32352030203020302d312e3632352d312e3539354c34312e3435362032342e353961342e33383220342e3338322030203020302d342e33393420306c2d31342e38363420382e36353561342e323520342e32352030203020302d312e36323520312e35393520342e32373320342e3237332030203020302d2e35373220322e3230387631372e34343161342e323720342e3237203020302030202e35373220322e32303820342e323520342e323520302030203020312e36323520312e3539356c31342e38363420382e36353561342e33383220342e33383220302030203020342e33393420306c31302e3038312d352e39303120362e38352d342e3036352031302e3038312d352e39303161342e33383220342e33383220302030203120342e33393420306c372e38383420342e353961342e353220342e353220302030203120312e35383920312e36313620342e353420342e3534203020302031202e36303820322e31383776392e33313161342e323720342e32372030203020312d2e35373220322e32303820342e323520342e32352030203020312d312e36323520312e3539356c2d372e38383420342e37323161342e33383220342e3338322030203020312d342e33393420306c2d372e3838342d342e353961342e353220342e35322030203020312d312e3538392d312e36313620342e353320342e35332030203020312d2e3630382d322e313837762d362e3033326c2d362e383520342e30363576362e30333261342e323720342e3237203020302030202e35373220322e32303820342e323520342e323520302030203020312e36323520312e3539356c31342e38363420382e36353561342e33383220342e33383220302030203020342e33393420306c31342e3836342d382e36353561342e35343520342e35343520302030203020322e3139382d332e3830335635352e35333861342e323720342e32372030203020302d2e3537322d322e32303820342e323520342e32352030203020302d312e3632352d312e3539356c2d31342e3939332d382e3738367a222066696c6c3d2223414141222f3e3c646566733e3c6c696e6561724772616469656e742069643d2261222078313d2230222079313d2230222078323d22323730222079323d2232373022206772616469656e74556e6974733d227573657253706163654f6e557365223e3c73746f702073746f702d636f6c6f723d222341303046222f3e3c73746f70206f66667365743d2232222073746f702d636f6c6f723d2223304630376534222073746f702d6f7061636974793d222e3939222f3e3c2f6c696e6561724772616469656e743e3c2f646566733e3c7465787420783d2233322e352220793d223233312220666f6e742d73697a653d223237222066696c6c3d2223666666222066696c7465723d2275726c282362292220666f6e742d66616d696c793d22506c7573204a616b617274612053616e732c44656a6156752053616e732c4e6f746f20436f6c6f7220456d6f6a692c4170706c6520436f6c6f7220456d6f6a692c73616e732d73657269662220666f6e742d7765696768743d22626f6c64223e",
    "linkReferences": {},
    "deployedLinkReferences": {}
}